:100000000C9434000C9451000C9451000C94510049
:100010000C9451000C9451000C9451000C9451001C
:100020000C9451000C9451000C9451000C9451000C
:100030000C9451000C9451000C9451000C945100FC
:100040000C9451000C9451000C9453000C945100EA
:100050000C9451000C9451000C9451000C945100DC
:100060000C9451000C94510011241FBECFEFD8E026
:10007000DEBFCDBF11E0A0E0B1E0EAE5F1E002C0F3
:1000800005900D92A230B107D9F721E0A2E0B1E0CE
:1000900001C01D92A430B207E1F70E9466000C94E3
:1000A000AB000C9400001F920F920FB60F92112418
:1000B0008F938091C6008093030181E080930201B9
:1000C0008F910F900FBE0F901F9018958CEF84B9F1
:1000D0000E948000789480E091E00E949B002C9A1E
:1000E000809102018130E1F780910301893511F49B
:1000F0002C9A03C0883509F42C9810920201F0CF95
:100100001092C50087E68093C400E2ECF0E08081A5
:1001100086608083E1ECF0E080818861808380816B
:10012000806880830895E0ECF0E0908195FFFDCF3A
:100130008093C6000895CF93DF93EC0188818823D4
:1001400039F0219690E00E94930089918111FACFB5
:0A015000DF91CF910895F894FFCFDE
:02015A00410062
:00000001FF
